:020000040800F2
:10000000784600200D020008ED090008A909000843
:10001000E9090008C7020008BF0D00080000000041
:10002000000000000000000000000000C90A0008F5
:10003000C90800080000000023020008250200088B
:1000400027020008270200082702000827020008EC
:1000500027020008270200082702000827020008DC
:1000600027020008270200082702000827020008CC
:1000700027020008270200082702000827020008BC
:1000800027020008270200082702000827020008AC
:10009000C5030008270200082702000827020008FD
:1000A00027020008210C0008270200082702000888
:1000B0003D0C0008550C0008710C000827020008D0
:1000C000270200082702000827020008270200086C
:1000D000270200080D0D0008270200082D0D00085A
:1000E000270200082702000827020008270200084C
:1000F000A90C0008270200082702000827020008B0
:1001000027020008270200088D0C000827020008BB
:1001100027020008ED0C000827020008270200084B
:10012000270200082702000827020008270200080B
:1001300027020008270200082702000827020008FB
:10014000E904000827020008270200082702000827
:1001500027020008270200082702000827020008DB
:1001600027020008270200082702000827020008CB
:1001700027020008270200082702000827020008BB
:10018000270200082702000800F002F800F02EF80D
:100190000AA090E8000C82448344AAF10107DA45E2
:1001A00001D100F023F8AFF2090EBAE80F0013F006
:1001B000010F18BFFB1A43F001031847540C00004D
:1001C000640C00000023002400250026103A28BFFC
:1001D00078C1FBD8520728BF30C148BF0B607047B9
:1001E0001FB500F00FFE1FBD10B510BD00F031F8B7
:1001F0001146FFF7F5FF00F0E5FD00F04FF803B4FE
:10020000FFF7F2FF03BC00F053F8000009488047F5
:1002100009480047FEE7FEE7FEE7FEE7FEE7FEE7E8
:10022000FEE7FEE7FEE7FEE704480549054A064B00
:1002300070470000B90B0008890100087800002011
:1002400078460020784200207842002070477047AE
:100250007047754600F032F8AE46050069465346D1
:1002600020F00700854618B020B5FFF7DDFFBDE898
:1002700020404FF000064FF000074FF000084FF00D
:10028000000B21F00701AC46ACE8C009ACE8C0099E
:10029000ACE8C009ACE8C0098D46704710B504460B
:1002A000AFF300802046BDE81040FFF7A8BF000074
:1002B00001491820ABBEFEE7260002000048704747
:1002C00014000020704700BFFEE7000000B58BB0AF
:1002D0000121480600F0D8FB0121022000F0C4FBF8
:1002E00009220821354800F038FB0922114633481D
:1002F00000F033FB4FF44070099002208DF8280085
:100300008DF8290000208DF82A0001208DF82B009F
:1003100009A92A4800F0D9FA294800F01BF9002061
:100320008DF81E0001208DF81F0000208DF82000A0
:100330008DF821008DF822008DF823008DF81A0029
:100340008DF81B000B208DF81C0007208DF81D0078
:100350000420ADF8180006A9194800F0A4F90020FF
:100360008DF812008DF8130001208DF81400002084
:10037000ADF80800ADF80A00ADF80C00ADF80E00BD
:10038000ADF8100001208DF8150002A800F0FEF86D
:1003900014208DF8040000208DF8050003208DF84E
:1003A000060001208DF8070001A800F021FB0122C2
:1003B0000221034800F06EF90BB000BD00040240BA
:1003C000006400401CB50024002000900190002132
:1003D000034800F0F2F90349014800F09FF81CBD02
:1003E000006400400300001200B58BB001218806B4
:1003F00000F04AFB0121480600F046FB01210220E3
:1004000000F032FB09220521354800F0A6FA092246
:100410000621334800F0A1FA6020099002208DF8EF
:1004200028008DF8290000208DF82A0001208DF881
:100430002B0009A92A4800F048FA2A4800F08AF857
:1004400000208DF81E0001208DF81F0000208DF87F
:1004500020008DF821008DF822008DF823008DF802
:100460001A008DF81B000B208DF81C0007208DF85A
:100470001D000420ADF8180006A91A4800F013F971
:100480000E208DF8120000208DF8130001208DF849
:1004900014000020ADF80800ADF80A00ADF80C001B
:1004A000ADF80E00ADF8100001208DF8150002A87F
:1004B00000F06CF840208DF8040000208DF8050055
:1004C00003208DF8060001208DF8070001A800F038
:1004D0008FFA01220221034800F0DCF80BB000BDC6
:1004E00000040240006800401CB500240020009079
:1004F00001900021064800F060F920B1054A002172
:10050000034800F069F90449014800F007F81CBDF0
:1005100000680040000000200300001200220C4B85
:10052000994202D10023836111E0C1F3130201F06B
:1005300000730BB1C2600AE001F080630BB102618D
:1005400005E001F000630BB1826000E0426070479B
:100550007000F03010B504460B48844209D10121E7
:10056000480600F0A1FA00214FF0007000F09CFA5C
:1005700008E00121880600F097FA00214FF0806022
:1005800000F092FA10BD00000064004010B5002198
:10059000837A012202FA03F13D4A126842F0010215
:1005A0003B4B1A603A4A1C3212688A43384B1C3360
:1005B0001A60027BCAB9364A0C3212688A43344B3D
:1005C0000C331A604288C38842EA0343304A4032FF
:1005D000847A42F834300288838842EA03432C4A02
:1005E0004032847A02EBC4025360027B012A19D1A3
:1005F000274A0C3212680A43254B0C331A60428892
:10060000038842EA0343224A4032847A42F8343073
:10061000C288838842EA03431D4A4032847A02EB4F
:10062000C4025360C27A3AB9194A121D12688A4349
:10063000174B1B1D1A6006E0154A121D12680A436B
:10064000134B1B1D1A60028932B9114A1432126809
:100650008A430F4B14331A600289012A06D10C4ACF
:10066000143212680A430A4B14331A60427B012A7F
:1006700006D1074A1C3212680A43054B1C331A6024
:10068000034A126822F00102014B1A6010BD0000FB
:10069000006600401AB143690B43436102E04369BD
:1006A0008B434361704730B5024600200023146835
:1006B00024F002041460146844F00104146000E0A3
:1006C0005B1C546804F001041CB94FF6FF74A3428C
:1006D000F6D1546804F001040CB900206CE08C7968
:1006E000012C04D1146844F08004146003E0146801
:1006F00024F080041460CC79012C04D1146844F0F7
:100700004004146003E0146824F0400414600C7A80
:10071000012C04D1146844F02004146003E0146830
:1007200024F0200414604C7A012C04D1146844F0A5
:100730001004146003E0146824F0100414608C7A30
:10074000012C04D1146844F00804146003E0146818
:1007500024F008041460CC7A012C04D1146844F00D
:100760000404146003E0146824F0040414608C781A
:10077000A407CD7844EA05640D7944EA05444D792F
:1007800044EA05540D886D1E2C43D461146824F08E
:1007900001041460002300E05B1C546804F00104B1
:1007A0001CB14FF6FF74A342F6D1546804F0010463
:1007B0000CB1002000E0012030BD0246002019B934
:1007C000D36803F0030006E0012903D1136903F0A5
:1007D000030000E00020704710B500F5D87303EB6C
:1007E00001131B6803F004031372137A53B900F565
:1007F000D87303EB01131B6840F2FF7404EA5353F0
:10080000136009E000F5D87303EB01131B686FF068
:10081000604404EAD303536000F5D87303EB01137B
:100820001B6803F00203537200F5D87303EB011346
:100830005B6803F00F03937200F5D87303EB0113A9
:100840005B681B0AD37400F5D87303EB01139B6834
:10085000D37200F5D87303EB01139B681C0A147361
:1008600000F5D87303EB01139B681C0C547300F55F
:10087000D87303EB01139B681B0E937300F5D873B9
:1008800003EB0113DB68D37300F5D87303EB01139B
:10089000DB681C0A147400F5D87303EB0113DB68E2
:1008A0001C0C547400F5D87303EB0113DB681B0EAA
:1008B000937421B9C36843F02003C36003E0036964
:1008C00043F02003036110BD7047F0B50A460021D4
:1008D0000023002400BF3DE0012505FA01F315685F
:1008E00005EA03049C4234D105684F000326BE404C
:1008F000B543056015794E00B5400668354305607F
:100900001579012D02D01579022D16D185684F0079
:100910000326BE40B543856055794E00B5408668D4
:1009200035438560456801268E40B543456045687E
:1009300096798E40B6B235434560C5684F000326B0
:10094000BE40B543C560D5794E00B540C668354355
:10095000C560491C1029BFD3F0BDF0B500230024A9
:100960004D07ED0E02FA05F3CE1000F1200555F803
:1009700026504E07F70E0F26BE40B543CF1000F1AC
:10098000200646F82750CE1000F1200555F82650D5
:1009900045EA0304CE1000F1200545F82640F0BDDD
:1009A000418370470183704700BFFEE71CB50121FA
:1009B000084600F059F84020009001208DF804000E
:1009C00000208DF8060003208DF8050001208DF829
:1009D000070069460348FFF778FF40210148FFF709
:1009E000E1FF1CBD0000024000BFFEE700BFFEE7C4
:1009F00070B5002100230F22C4781CB3174C246863
:100A000004F4E064C4F5E064C4F30721C1F1040414
:100A1000E3B20A4144789C40E1B284781440214317
:100A20000C07210E0E4C05786155047804F01F0563
:100A30000124AC4005786D11AD0005F1E025C5F845
:100A4000004109E0047804F01F050124AC40054D85
:100A50000678761145F8264070BD00000CED00E0E8
:100A600000E400E080E100E029B1064A1268024398
:100A7000044B1A6004E0034A12688243014B1A6077
:100A8000704700003038024029B1064A126802431C
:100A9000044B1A6004E0034A12688243014B1A6057
:100AA000704700004038024029B1064A12680243EC
:100AB000044B1A6004E0034A12688243014B1A6037
:100AC0007047000020380240704700000CB500203D
:100AD000019000903448006840F48030324908604A
:100AE00000BF3148006800F4003000900198401CBD
:100AF0000190009818B90198B0F5A06FF1D12A487B
:100B0000006800F4003010B10120009001E00020E6
:100B100000900098012846D123484030006840F0FA
:100B200080502149403108602048006840F48040EE
:100B30001E4908601C48083000681B4908310860DD
:100B40000846006840F4004008600846006840F429
:100B5000A05008601648091F0860081F006840F090
:100B60008070091F086000BF0F48006800F0007027
:100B70000028F9D040F205600E4908600A480830A4
:100B8000006820F003000849083108600846006842
:100B900040F00200086000BF03480830006800F021
:100BA0000C000828F8D10CBD00380240007000404D
:100BB00008544007003C024010B51548006840F456
:100BC0007000134908601348006840F001001149A3
:100BD000086000200F49083108600E4800680E497F
:100BE00008400C4908600D48091D0860081F00688E
:100BF00020F48020091F0860002006490C3108609D
:100C0000FFF764FF4FF0006001498039086010BDB4
:100C100088ED00E000380240FFFFF6FE10300024AF
:100C200010B50121044800F050F8012803D101213A
:100C3000014800F047F810BD0000014010B5012147
:100C4000880700F042F8012803D10121800700F055
:100C500039F810BD10B50121044800F036F801281C
:100C600003D10121014800F02DF810BD000400401F
:100C700010B50121044800F028F8012803D1012112
:100C8000014800F01FF810BD0008004010B5012118
:100C9000044800F01AF8012803D10121014800F0AE
:100CA00011F810BD000C004010B50121044800F0FF
:100CB0000CF8012803D10121014800F003F810BD10
:100CC00000040140CA430282704730B5024600204A
:100CD00000230024158A05EA0103958905EA010429
:100CE00013B10CB1012000E0002030BD10B540F27E
:100CF0002551054800F039F8012804D140F225516A
:100D0000014800F023F810BD0050004010B540F23B
:100D10002551054800F029F8012804D140F2255159
:100D2000014800F013F810BD0010014010B540F26A
:100D30002551054800F019F8012804D140F2255149
:100D4000014800F003F810BD0048004010B5002233
:100D5000002340F66A14A14200D100BF0A12012408
:100D60009440A3B2DC43048010BD70B50246002459
:100D700000230025002040F66A16B14200D100BFD2
:100D8000C1F3421501F01F03012606FA03F3012DFA
:100D900002D19689334006E0022D02D1168A3340F3
:100DA00001E0968A33400C12012606FA04F41688F4
:100DB000344013B10CB1012000E0002070BD00BF31
:100DC000FEE7000010B5FFF7F1FDFFF77FFAFFF730
:100DD0000BFB002410E00948C07A012801D101244E
:100DE00000E0002424B140210548FFF7D9FD03E0CD
:100DF00040210348FFF7D6FDEDE70000000000208A
:100E0000000002404FF04070E1EE100A7047000011
:100E1000200E00080000002078460000C4010008F1
:040000050800018965
:00000001FF
